:10088C0050574D3120696E707574207261772076E7
:10089C00616C75653A0050574D3120696E707574F6
:1008AC002066696C7465722076616C75653A0050CF
:1008BC00574D3220696E70757420726177207661A5
:1008CC006C75653A0050574D3220696E7075742006
:1008DC0066696C7465722076616C75653A0062614C
:1008EC006E643120636F6E74726F6C206D6F646513
:1008FC003A0062616E643220636F6E74726F6C20AA
:10090C006D6F64653A00706F7765725F6C696D69C5
:10091C00743A00636831206F75747075743A0063B3
:10092C006832206F75747075743A003D3D3D3D3DE5
:10093C003D206F757470757420656E64203D3D3D6F
:10094C003D3D3D0D0A0062616E643120726177207D
:10095C006164635F76616C756528307E313032334B
:10096C00293A0062616E643220726177206164639F
:10097C005F76616C756528307E31303233293A00F0
:10098C00706F77657220726177206164635F766146
:0D099C006C756528307E31303233293A0009
:100E7D0002080000020A0000020C0000020E000031
:100E8D000210000002120000021400000216000001
:100E9D00011800011900011A00011B00011C0001BD
:060EAD001D00021E000002
:1012EE00E4F520F521752201752303752401F525FA
:0C12FE00F52675270175280375290122CB
:1005CB00E522640160030207257F0112000E8E08ED
:1005DB008F09AD11AC1012138BC3EF9432EE940054
:1005EB00400C850810850911E4F51A0206F6E51A88
:1005FB0060030206F6AD0DAC0CAF09AE0812138BFF
:10060B00EF4E700405188003E4F518E518C3940346
:10061B004009850810850911751A01E51A60030256
:02062B0006F6D1
:10062D00AD09AC08AF11AE1012138B8E418F42ADD8
:10063D0015AC14AF11AE1012138B8E438F44E51C05
:10064D00D3940A5051C3E542940AE54194005042B7
:10065D00AC08AD09E41202D97B9A7A997919783FE1
:10066D001201CEC004C005C006C007AC10AD11E428
:10067D001202D97BCD7ACC79CC783E1201CED00343
:10068D00D002D001D0001200DD1203128E108F1196
:10069D008000051C8053D3E5429544E541954340C8
:1006AD0006AC14AD158004AC08AD09E41202D9E412
:1006BD00FBFAF9783F1201CEC004C005C006C00791
:1006CD00AC10AD11E41202D9E4FBFAF9783F120136
:1006DD00CED003D002D001D0001200DD1203128E55
:0906ED00108F1185101485111500
:1006F60085080C85090D7BFF7A08798C121288AF64
:1007060009AE081211A31214617BFF7A0879A212AE
:100716001288AF21AE201211A3121461121461E5E2
:10072600276401600302087F7F0212000E8E0A8F83
:100736000BAD13AC1212138BC3EF9464EE9400400E
:100746000C850A12850B13E4F51B020850E51B60A5
:1007560003020850AD0FAC0EAF0BAE0A12138BEFAF
:100766004E700405198003E4F519E519C394034096
:1007760009850A12850B13751B01E51B6003020828
:010786005022
:10078700AD0BAC0AAF13AE1212138B8E418F42AD75
:1007970017AC16AF13AE1212138B8E438F44E51DA1
:1007A700D3940A5051C3E542940AE541940050425C
:1007B700AC0AAD0BE41202D97B9A7A997919783F82
:1007C7001201CEC004C005C006C007AC12AD13E4C9
:1007D7001202D97BCD7ACC79CC783E1201CED003E8
:1007E700D002D001D0001200DD1203128E128F1337
:1007F7008000051D8053D3E5429544E5419543406C
:1008070006AC16AD178004AC0AAD0BE41202D9E4AE
:10081700FBFAF9783F1201CEC004C005C006C00735
:10082700AC12AD13E41202D9E4FBFAF9783F1201D6
:10083700CED003D002D001D0001200DD1203128EF9
:09084700128F1385121685131798
:10085000850A0E850B0F7BFF7A0879BB121288AFD1
:100860000BAE0A1211A31214617BFF7A0879D11220
:100870001288AF26AE251211A312146112146185DD
:0B08800010208511218512258513260C
:01088B00224A
:10106000853C24853D29E524B4010A75220112132B
:10107000A1D28C8008E4F522121413C28CE529B4A5
:10108000010A7527011213B7D28E8008E4F52712E2
:101090001422C28E7BFF7A0879EA121288AF2212DC
:1010A00014311214617BFF7A0879FE121288AF277F
:0910B000121431121461021461E2
:10134200853E23853E287BFF7A097912121288AFE7
:0A1352002312143112146102146119
:100DA7007F011211E58E418F427F021211E58E43BA
:100DB7008F447B007A0079417F011210057B007A0E
:100DC7000079437F02121005AD42AC417F01121238
:100DD700ADAD44AC437F021212AD7BFF7A09791F98
:100DE700121288AF42AE411211A31214617BFF7A2F
:100DF70009792B121288AF44AE431211A312146162
:0C0E07007BFF7A0979371212880214610F
:081005008F458B468A4789489C
:10100D001213E3EF704CE54575F005A4241EF8E6C8
:10101D0024FE601504703BAB46AA47A94812041381
:10102D00FFAEF07C027D9B8010AB46AA47A948120B
:10103D000413FFAEF07C037D4112059EE47BE87A3C
:10104D0003F9F81204FEAB46AA47A948EE8FF01239
:02105D00047617
:01105F00226E
:1000BA00BF0109EDD39401500E8D2222BF0208ED33
:0800CA00D3940150028D27229E
:1013E300E4FEBF0104AE228005BF0202AE27AF06B2
:0113F30022D7
:0211E5008F4534
:1011E700E4FDFCAF451213E3EF1460120470257D94
:1011F700E87C03AF45120E13AC06AD078019E54531
:10120700B40106AC20AD21800EE545B40209AC253A
:0B121700AD268003E4FCFDAE04AF0533
:0112220022A9
:040E1300AB05AA047D
:100E1700E4FEBF0104AE248005BF0202AE29EE2422
:100E2700FD601414601F14602714603F2404704190
:100E3700E4F51EF51F803AAE02EB7802CEC313CE5F
:100E470013D8F98020EAC313F51EEB13F51F802191
:100E57007C007D03AF03AE021203ACEF7802CEC372
:100E670013CE13D8F9F51F8E1E80068A1E8B1F809E
:050E770000AE1EAF1FDC
:010E7C002253
:100F4C007D037F0D120B538E2E8F2F7D037F0E1280
:100F5C000B538E308F317D037F0A120B538E328FE1
:100F6C00337BFF7A097952121288AF2FAE2E1211F1
:100F7C00A31214617BFF7A09796F121288AF31AE1C
:100F8C00301211A31214617BFF7A09798C1212882A
:0D0F9C00AF33AE321211A3121461021461C2
:10138B00D3EF9DEE9C4007EF9DFFEE9CFE22C3ED3D
:06139B009FFFEC9EFE2204
:100D380062616E643120766F6C74616765286D76C8
:100D4800293A0062616E643220766F6C746167655F
:100D5800286D76293A00706F77657220766F6C740B
:100D6800616765286D76293A0062616E6431207387
:100D7800776974636820706F733A0062616E6432D9
:100D88002073776974636820706F733A00706F77A7
:0F0D980065722073776974636820706F733A0017
:100EB300013C00013D00013E00062E000000000041
:100EC3000002380000023A000002340000022A0047
:090ED3000002360000022C0000B0
:080C17008B4C8A4D894E8D4F74
:100C1F00E4F550E54F14FFE550C39F4003020CC8A5
:100C2F00E4F551C3E54F955014FFE551C39F4003C1
:100C3F00020CC3E5512401FFE433FEEF25E0FFEE84
:100C4F0033AB4CAA4DA94E8F82F58312043EFFAEF3
:100C5F00F075F002E551A4F58285F08312043EFD94
:100C6F00ACF0D39FEC9E40478C528D53E55124013D
:100C7F00FFE433FEEF25E0FFEE338F82F58312049E
:100C8F003EFFAEF075F002E551A4F58285F083EEDC
:100C9F008FF0120495E5512401FFE433FEEF25E0B8
:100CAF00FFEE338F82F583E5528553F012049505DD
:090CBF0051020C320550020C2216
:010CC8002209
:04001E00E4F5C12222
:0C143F0012122312140412000302135CAA
:101223004391015392FE4391025392FD4391105314
:1012330092EF43B10453B2FB53B1F743B20853B136
:10124300EF43B21043B12053B2DF43B14053B2BFB7
:0712530053B0F753B0EF2286
:0F14040075DE2F75BC80C2AD7F0A7E00021374A7
:1013F4007C137D8812059EE4FB7A04F9F80204FE4E
:040B53008D41A90720
:100B5700E4F54BF54AF549F548E541C394035003DD
:100B6700754103E4FBEBC39541500DEB25E02442AF
:100B7700F8E4F608F60B80EDE4FBEBC39541503A39
:100B870053BCF0E9540F42BC43BC40E4FDE5BC3024
:100B9700E521E5BC540FB50117AFBDEFFEACBEECC8
:100BA700F582E582FFEB25E02442F8A60608A607B2
:100BB70053BCDF0DBDFAD60B80C07B007A007942AB
:100BC700AD41120C177B01E54114FFEBC39F502584
:100BD700EB25E02442F8E6FE08E6FFE4FCFDE54BE2
:100BE7002FF54BE54A3EF54AED3549F549EC3548D1
:100BF700F5480B80D2E54124FEFFE434FFAB07FA4A
:100C07003395E0F9F8AF4BAE4AAD49AC480204FE64
:03002B00020009C7
:0100090032C4
:060003001210B9020EE626
:1010B90090FEF0E4F0A37417F090FEB67450F0902F
:1010C900FEEDE4F090FEEA7460F0A3F090FEF9748E
:1010D90001F0A374F4F0A37401F0A374F4F090FE8A
:1010E900F27403F0A374E7F090FEED7411F090FE32
:1010F900B57450F090FEFD7480F090FEE07401F03C
:0111090022C3
:100EE60090FED0E4F0A37417F0A374FFF0A3F09083
:100EF600FEB2E4F090FECCF090FEC804F0E0540F91
:100F0600F0E04430F0A37402F0E0540FF0E0443017
:100F1600F090FECCE0F0E04420F0A3E4F090FECAAE
:100F260004F0E0540FF0E04430F0A37402F0E05413
:100F36000FF0E04430F090FECDE0F0E04420F09079
:060F4600FEC07401F02260
:1012AD00D3ED94E8EC940340047C037DE8EF24FE39
:1012BD00600804700D90FEF9800390FEFBECF0A326
:0312CD00EDF0221F
:0D000E00BF0105AE38AF3922AE3AAF3B223C
:1013A10090FECCE04411F090FEC4E04406F090FEC3
:0613B100C0E04401F0223F
:1013B70090FECDE04411F090FEC4E04418F090FE9A
:0613C700C0E04401F02229
:0F14130090FECCE054EEF090FEC4E054F9F022CD
:0F14220090FECDE054EEF090FEC4E054E7F022CF
:0300D3000209A976
:1009A900C0E0C083C082C0D075D000C006C0079027
:1009B900FEC5E030E11190FED5E0F534A3E0F53550
:1009C90090FEC5E054FDF090FEC5E030E23F90FE98
:1009D900D7E0F52AA3E0F52BC28CC39535E52A9516
:1009E90034400EE52B9535F539E52A9534F53880EF
:1009F90015C374FF9535FF74FF9534FEE52B2FF56C
:100A090039E52A3EF53890FEC5E054FBF090FEC565
:100A1900E030E31190FED9E0F536A3E0F53790FE1A
:100A2900C5E054F7F090FEC5E030E43F90FEDBE00E
:100A3900F52CA3E0F52DC28EC39537E52C953640EC
:100A49000EE52D9537F53BE52C9536F53A8015C31E
:100A590074FF9537FF74FF9536FEE52D2FF53BE5BD
:100A69002C3EF53A90FEC5E054EFF0D007D006D001
:080A7900D0D082D083D0E0321E
:10135C00E4F589758CFC758A18D2A9D28C758BFC36
:08136C00758D18D2ABD28E2260
:03000B0002130AD3
:10130A00C0E0C28DC28CE59030E0087538037539AB
:0C131A00E88006753800753900D0E0321C
:03001B00021326A7
:10132600C0E0C28FC28EE59030E408753A03753B83
:0C133600E88006753A00753B00D0E032FC
:020A81008F41A3
:100A8300E4F542F543F544E54125E0242EF8E6FE7E
:100A930008E6FF1213F48E438F44D3E54494C8E56C
:100AA3004394005006754201020B33C3E54494207E
:100AB300E54394034010D3E54494B0E543940450D4
:100AC30005754202806AC3E544945EE5439406409B
:100AD30010D3E54494EEE543940750057542038033
:100AE3004FC3E54494D2E543940A4010D3E54494BC
:100AF30062E543940C50057542048034C3E5449485
:100B03000AE543940F4010D3E544949AE5439410C7
:100B130050057542058019C3E54494C0E54394121A
:100B2300400ED3E5449488E543941350037542067D
:100B3300E5417BFF70067A0D793880047A0D794B95
:0F0B4300121288AF44AE431211A3121461AF42D5
:010B52002280
:100CC900E4F541F542F543AE32AF331213F48E42E7
:100CD9008F43D3E54394C8E542940050057541011B
:100CE9008034C3E5439434E54294034010D3E5438B
:100CF90094C4E542940450057541028019C3E54343
:100D090094ECE5429404400ED3E543947CE5429487
:100D19000650037541037BFF7A0D795E121288AF85
:0E0D290043AE421211A3121461121461AF41C5
:010D37002299
:10115A00E4FF120A818F3C7F01120A818F3D120C33
:10116A00C98F3E7BFF7A0D7971121288AF3C121437
:10117A00311214617BFF7A0D7983121288AF3D1206
:10118A0014311214617BFF7A0D7995121288AF3EE1
:09119A00121431121461021461F7
:10110A0053797374656D20696E697469616C697A63
:10111A006520636F6D706C6574652E0D0A003D3D28
:10112A003D3D3D3D20626567696E207363616E20B7
:10113A0073776974636873203D3D3D3D3D3D0D0AFB
:10114A00006578656375746520636F756E743A001F
:100FA900E4F53FF540C2AF43BA8012001E12143F68
:100FB9001212D01212EED2AF7BFF7A11790A1212F5
:100FC900887BFF7A1179281212887BFF7A11794B75
:100FD9001212880540E540AE3F7002053F14FF122A
:100FE90011A3121461121461120F4C12115A12102A
:0C0FF900601205CB121342120DA780C538
:101374007D607C09ED1D70011C144C70F7EF1F702B
:06138400011E144E70EA88
:01138A002240
:090EDC000155000156000154000B
:1012D000759850538EEF438E01538EF7438E0475ED
:0E12E000D78F75D6FD53AFFB438E10D2AC22D4
:0300230002125A6C
:10125A00C0E0C0D075D000C000C007309905C2995F
:10126A0075540030980FC298AF55055574572FF82A
:0E127A00A69953550FD007D000D0D0D0E03247
:0A145700E55470FC7554018F9922D2
:0E14310074302FFFE55470FC7554018F992222
:0411A3008E458F46A0
:1011A7007B107A27AE45AF46AD03AC021203BE8F64
:1011B7004774302547F547FF121457AE45AF46AD84
:1011C70003AC021203BE8C458D467C007D0AAF033B
:0D11D700AE021203BEAA06AB07EB4A70C7BA
:0111E40022E8
:0A1461007F0D1214577F0A02145782
:101288008B458A468947AB45AA46A947120393600E
:10129800130547E5477002054614F9120393FF1238
:0512A800145780E22252
:1013CD00E4FFE5556556600DAF56055674572FF879
:0513DD00E6FF53560F6E
:0113E20022E8
:0C144B00E555655660037F01227F0022FA
:1000D60002037EE86480F8E933E83360110460F0D7
:1000E600ED33EC337009E8FCE9FDEAFEEBFF220490
:1000F60060DED3EB9FEA9EE99DE8C2E78CF0C2F78B
:1001060095F0400CE8CCF8E9CDF9EACEFAEBCFFB56
:1001160012034985D0F05804700320D5B3E8047063
:10012600075002B2D502038892D5EC0460F7E4CCFE
:10013600C0E0C398F8603B94186008400DD0E0FB1F
:10014600020360E4FBFAC9FC8028E830E406E4C94F
:10015600FBE4CAFCE830E305E4C9CACBFCE8540773
:100166006010F8C3E913F9EA13FAEB13FBEC13FC7E
:10017600D8F130F52FC3E49CFCEF9BFFEE9AFEED21
:1001860099FDD0E0FBEF4E4D4C701222DB030203CB
:1001960085EC2CFCEF33FFEE33FEED33FDED30E75F
:1001A600EB020360EF2BFFEE3AFEED39FDD0E0FBEC
:1001B60050130BBB0003020388ED13FDEE13FEEF95
:0801C60013FFEC13FC020360BF
:1001CE00EC4D6011E8497017ED33EC3304600DE42B
:1001DE00FCFFFEFD22E933E8330470F802037E12C1
:1001EE00034958046009E4CC2481500628500902C2
:1001FE000388284003020385C0E0EB4A7044B980AF
:10020E0006D0E0FB020374EF4E701CBD8008EBFFBE
:10021E00EAFEE9FD80EBE98DF0A4FEE5F00202B7FF
:10022E00E9CDF9EAFEEBFFEF89F0A4FCE5F0CE890B
:10023E00F0A42EFFE435F0CD89F0A42DFEE435F0C8
:10024E008067EF4E7005BD80D780C3EF8BF0A4ACF6
:10025E00F0EE8BF0A42CFCE435F0F8EF8AF0A42C31
:10026E00E5F038FCE433CB8DF0A42CFCE5F03BF844
:10027E00EE8AF0A42CFCE5F038F8E433CF89F0A434
:10028E002CFCE5F038CF3400CE89F0A42FFFE5F03A
:10029E003EFEE433C98DF0A42EFEE5F039CD8AF092
:1002AE00A42FFFE5F03EFEE43DFD33D0E0FB50070A
:1002BE000BBB000F020388EC2CFCEF33FFEE33FE7A
:0602CE00ED33FD020360A8
:1002D40075F020800E75F010800575F0087D007EA5
:1002E400007F003392D530D503120590EC334010D3
:1002F400EF33FFEE33FEED33FDEC33FCD5F0ED22AE
:0E030400E5F0247EA2D513CC92E7CDCEFF22E9
:10031200EDD2E7CD33EC3392D524814006E4FFFEE3
:10032200FDFC22FCE4CFCECDCC24E0501174FF8042
:10033200EDC3CC13CCCD13CDCE13CECF13CF0470DF
:07034200F030D5DE0205904A
:10034900E9D2E7C933E833F892D5EDD2E7CD33ECFA
:0703590033FC5002B2D52273
:10036000EC30E7100FBF000C0EBE00080DBD0004FE
:100370000BEB6014A2D5EB13FCED92E7FD2274FFAA
:10038000FCFDFEFF22E480F8A2D574FF13FC7D8003
:03039000E480EF17
:0300000002002ECD
:0C002E00787FE4F6D8FD7581660200754D
:10039300BB010689828A83E0225002E722BBFE0268
:0903A300E32289828A83E493229B
:1003AC00EF8DF0A4A8F0CF8CF0A428CE8DF0A42E65
:0203BC00FE221F
:1003BE00BC000BBE0029EF8DF084FFADF022E4CC23
:1003CE00F875F008EF2FFFEE33FEEC33FCEE9DECEC
:1003DE00984005FCEE9DFE0FD5F0E9E4CEFD22ED32
:1003EE00F8F5F0EE8420D21CFEADF075F008EF2F7C
:1003FE00FFED33FD4007985006D5F0F222C398FD6D
:05040E000FD5F0EA2209
:10041300BB010A89828A83E0F5F0A3E022500687B4
:10042300F009E71922BBFE07E3F5F009E319228976
:0B043300828A83E493F5F074019322A9
:10043E00BB0110E58229F582E5833AF583E0F5F0FC
:10044E00A3E0225009E92582F886F008E622BBFED9
:10045E000AE92582F8E2F5F008E222E5832AF5831F
:08046E00E993F5F0A3E99322E4
:10047600BB010A89828A83F0E5F0A3F0225006F7D1
:0F04860009A7F01922BBFE06F3E5F009F31922CE
:10049500F8BB0111E58229F582E5833AF583E8F099
:1004A500E5F0A3F0225009E92582C8F608A6F02256
:0D04B500BBFE09E92582C8F2E5F008F2223D
:1004C20075F008758200EF2FFFEE33FECD33CDCCF1
:1004D20033CCC58233C5829BED9AEC99E582984074
:1004E2000CF582EE9BFEED9AFDEC99FC0FD5F0D651
:1004F200E4CEFBE4CDFAE4CCF9A88222B800C1B97B
:100502000059BA002DEC8BF084CFCECDFCE5F0CBB8
:10051200F97818EF2FFFEE33FEED33FDEC33FCEBF1
:1005220033FB10D703994004EB99FB0FD8E5E4F9AC
:10053200FA227818EF2FFFEE33FEED33FDEC33FC99
:10054200C933C910D7059BE99A4007EC9BFCE99A8D
:10055200F90FD8E0E4C9FAE4CCFB2275F010EF2FD2
:10056200FFEE33FEED33FDCC33CCC833C810D707D2
:100572009BEC9AE899400AED9BFDEC9AFCE899F80D
:0E0582000FD5F0DAE4CDFBE4CCFAE4C8F922A0
:0E059000C3E49FFFE49EFEE49DFDE49CFC227C
:10059E00EC8EF0A4CCC5F0CCCDF8EFA4CEC5F02DEA
:1005AE00FDE43CFCE8A42EC8C5F03DFDE43CFCEFA8
:0D05BE00A4FFE5F028FEE43DFDE43CFC2236
:10003A00020FA9E493A3F8E493A34003F68001F224
:10004A0008DFF48029E493A3F85407240CC8C333C7
:10005A00C4540F4420C8834004F456800146F6DF96
:10006A00E4800B0102040810204080900E7DE47E9B
:10007A00019360BCA3FF543F30E509541FFEE4938B
:10008A00A360010ECF54C025E060A840B8E493A352
:10009A00FAE493A3F8E493A3C8C582C8CAC583CA7D
:1000AA00F0A3C8C582C8CAC583CADFE9DEE780BE35
:010EE500000C
:00000001FF
